{"contracts/DevBooking.sol":{"DevBooking":{"abi":[{"anonymous":false,"inputs":[{"indexed":true,"internalType":"address","name":"customer","type":"address"},{"indexed":true,"internalType":"address","name":"devAddress","type":"address"},{"indexed":false,"internalType":"uint256","name":"amountPaid","type":"uint256"},{"indexed":false,"internalType":"uint256","name":"hoursBooked","type":"uint256"}],"name":"BookingCreated","type":"event"},{"anonymous":false,"inputs":[{"indexed":true,"internalType":"address","name":"devAddress","type":"address"},{"indexed":false,"internalType":"string","name":"name","type":"string"},{"indexed":false,"internalType":"uint256","name":"hourlyRate","type":"uint256"}],"name":"DeveloperRegistered","type":"event"},{"anonymous":false,"inputs":[{"indexed":true,"internalType":"address","name":"devAddress","type":"address"},{"indexed":false,"internalType":"uint256","name":"hourlyRate","type":"uint256"},{"indexed":false,"internalType":"bool","name":"available","type":"bool"}],"name":"DeveloperUpdated","type":"event"},{"inputs":[{"internalType":"address","name":"_devAddress","type":"address"},{"internalType":"uint256","name":"_hoursBooked","type":"uint256"}],"name":"bookDeveloper","outputs":[],"stateMutability":"payable","type":"function"},{"inputs":[{"internalType":"address","name":"","type":"address"},{"internalType":"uint256","name":"","type":"uint256"}],"name":"bookings","outputs":[{"internalType":"address","name":"customer","type":"address"},{"internalType":"uint256","name":"amountPaid","type":"uint256"},{"internalType":"uint256","name":"hoursBooked","type":"uint256"},{"internalType":"uint256","name":"timestamp","type":"uint256"}],"stateMutability":"view","type":"function"},{"inputs":[{"internalType":"uint256","name":"","type":"uint256"}],"name":"developerAddresses","outputs":[{"internalType":"address","name":"","type":"address"}],"stateMutability":"view","type":"function"},{"inputs":[{"internalType":"address","name":"","type":"address"}],"name":"developers","outputs":[{"internalType":"string","name":"name","type":"string"},{"internalType":"uint256","name":"hourlyRate","type":"uint256"},{"internalType":"address payable","name":"wallet","type":"address"},{"internalType":"bool","name":"available","type":"bool"}],"stateMutability":"view","type":"function"},{"inputs":[],"name":"getAllDevelopers","outputs":[{"components":[{"internalType":"string","name":"name","type":"string"},{"internalType":"uint256","name":"hourlyRate","type":"uint256"},{"internalType":"address payable","name":"wallet","type":"address"},{"internalType":"bool","name":"available","type":"bool"}],"internalType":"struct DevBooking.Developer[]","name":"","type":"tuple[]"}],"stateMutability":"view","type":"function"},{"inputs":[{"internalType":"address","name":"_devAddress","type":"address"}],"name":"getBookings","outputs":[{"components":[{"internalType":"address","name":"customer","type":"address"},{"internalType":"uint256","name":"amountPaid","type":"uint256"},{"internalType":"uint256","name":"hoursBooked","type":"uint256"},{"internalType":"uint256","name":"timestamp","type":"uint256"}],"internalType":"struct DevBooking.Booking[]","name":"","type":"tuple[]"}],"stateMutability":"view","type":"function"},{"inputs":[{"internalType":"string","name":"_name","type":"string"},{"internalType":"uint256","name":"_hourlyRate","type":"uint256"}],"name":"registerDeveloper","outputs":[],"stateMutability":"nonpayable","type":"function"},{"inputs":[{"internalType":"uint256","name":"_hourlyRate","type":"uint256"},{"internalType":"bool","name":"_available","type":"bool"}],"name":"updateDeveloper","outputs":[],"stateMutability":"nonpayable","type":"function"}],"evm":{"bytecode":{"linkReferences":{},"object":"608060405234801561001057600080fd5b50611e8f806100206000396000f3fe60806040526004361061007b5760003560e01c806361fd5c201161004e57806361fd5c201461013f5780639c794e2a1461017f578063a8c2167b146101bf578063e2fb4a03146101ea5761007b565b806313997fc81461008057806322ea55f6146100bd5780632d3992dc146100fa57806348df6ade14610123575b600080fd5b34801561008c57600080fd5b506100a760048036038101906100a29190610f79565b610213565b6040516100b49190610fe7565b60405180910390f35b3480156100c957600080fd5b506100e460048036038101906100df919061102e565b610252565b6040516100f1919061117d565b60405180910390f35b34801561010657600080fd5b50610121600480360381019061011c91906111d7565b610364565b005b61013d60048036038101906101389190611217565b6104b3565b005b34801561014b57600080fd5b506101666004803603810190610161919061102e565b610851565b6040516101769493929190611326565b60405180910390f35b34801561018b57600080fd5b506101a660048036038101906101a19190611217565b610936565b6040516101b69493929190611372565b60405180910390f35b3480156101cb57600080fd5b506101d46109a3565b6040516101e19190611544565b60405180910390f35b3480156101f657600080fd5b50610211600480360381019061020c919061169b565b610bdf565b005b6002818154811061022357600080fd5b906000526020600020016000915054906101000a900473ffffffffffffffffffffffffffffffffffffffff1681565b6060600160008373ffffffffffffffffffffffffffffffffffffffff1673ffffffffffffffffffffffffffffffffffffffff168152602001908152602001600020805480602002602001604051908101604052809291908181526020016000905b8282101561035957838290600052602060002090600402016040518060800160405290816000820160009054906101000a900473ffffffffffffffffffffffffffffffffffffffff1673ffffffffffffffffffffffffffffffffffffffff1673ffffffffffffffffffffffffffffffffffffffff1681526020016001820154815260200160028201548152602001600382015481525050815260200190600101906102b3565b505050509050919050565b60008060003373ffffffffffffffffffffffffffffffffffffffff1673ffffffffffffffffffffffffffffffffffffffff1681526020019081526020016000209050600073ffffffffffffffffffffffffffffffffffffffff168160020160009054906101000a900473ffffffffffffffffffffffffffffffffffffffff1673ffffffffffffffffffffffffffffffffffffffff1603610439576040517f08c379a000000000000000000000000000000000000000000000000000000000815260040161043090611743565b60405180910390fd5b828160010181905550818160020160146101000a81548160ff0219169083151502179055503373ffffffffffffffffffffffffffffffffffffffff167fd3e1294fa54188e502681663ae27a8386967fac0db2f415fffb121454cd5ba8d84846040516104a6929190611763565b60405180910390a2505050565b60008060008473ffffffffffffffffffffffffffffffffffffffff1673ffffffffffffffffffffffffffffffffffffffff1681526020019081526020016000209050600073ffffffffffffffffffffffffffffffffffffffff168160020160009054906101000a900473ffffffffffffffffffffffffffffffffffffffff1673ffffffffffffffffffffffffffffffffffffffff1603610588576040517f08c379a000000000000000000000000000000000000000000000000000000000815260040161057f90611743565b60405180910390fd5b8060020160149054906101000a900460ff166105d9576040517f08c379a00000000000000000000000000000000000000000000000000000000081526004016105d0906117d8565b60405180910390fd5b6000821161061c576040517f08c379a000000000000000000000000000000000000000000000000000000000815260040161061390611844565b60405180910390fd5b600082826001015461062e9190611893565b905080341015610673576040517f08c379a000000000000000000000000000000000000000000000000000000000815260040161066a90611921565b60405180910390fd5b8160020160009054906101000a900473ffffffffffffffffffffffffffffffffffffffff1673ffffffffffffffffffffffffffffffffffffffff166108fc829081150290604051600060405180830381858888f193505050501580156106dd573d6000803e3d6000fd5b50600160008573ffffffffffffffffffffffffffffffffffffffff1673ffffffffffffffffffffffffffffffffffffffff16815260200190815260200160002060405180608001604052803373ffffffffffffffffffffffffffffffffffffffff16815260200183815260200185815260200142815250908060018154018082558091505060019003906000526020600020906004020160009091909190915060008201518160000160006101000a81548173ffffffffffffffffffffffffffffffffffffffff021916908373ffffffffffffffffffffffffffffffffffffffff16021790555060208201518160010155604082015181600201556060820151816003015550508373ffffffffffffffffffffffffffffffffffffffff163373ffffffffffffffffffffffffffffffffffffffff167fce064364739e714c1167ab4582b8525add338bd63099173042166cd8b9fb62628386604051610843929190611941565b60405180910390a350505050565b600060205280600052604060002060009150905080600001805461087490611999565b80601f01602080910402602001604051908101604052809291908181526020018280546108a090611999565b80156108ed5780601f106108c2576101008083540402835291602001916108ed565b820191906000526020600020905b8154815290600101906020018083116108d057829003601f168201915b5050505050908060010154908060020160009054906101000a900473ffffffffffffffffffffffffffffffffffffffff16908060020160149054906101000a900460ff16905084565b6001602052816000526040600020818154811061095257600080fd5b9060005260206000209060040201600091509150508060000160009054906101000a900473ffffffffffffffffffffffffffffffffffffffff16908060010154908060020154908060030154905084565b6060600060028054905067ffffffffffffffff8111156109c6576109c5611570565b5b6040519080825280602002602001820160405280156109ff57816020015b6109ec610eef565b8152602001906001900390816109e45790505b50905060005b600280549050811015610bd75760008060028381548110610a2957610a286119ca565b5b9060005260206000200160009054906101000a900473ffffffffffffffffffffffffffffffffffffffff1673ffffffffffffffffffffffffffffffffffffffff1673ffffffffffffffffffffffffffffffffffffffff168152602001908152602001600020604051806080016040529081600082018054610aa990611999565b80601f0160208091040260200160405190810160405280929190818152602001828054610ad590611999565b8015610b225780601f10610af757610100808354040283529160200191610b22565b820191906000526020600020905b815481529060010190602001808311610b0557829003601f168201915b50505050508152602001600182015481526020016002820160009054906101000a900473ffffffffffffffffffffffffffffffffffffffff1673ffffffffffffffffffffffffffffffffffffffff1673ffffffffffffffffffffffffffffffffffffffff1681526020016002820160149054906101000a900460ff161515151581525050828281518110610bb957610bb86119ca565b5b60200260200101819052508080610bcf906119f9565b915050610a05565b508091505090565b6000825111610c23576040517f08c379a0000000000000000000000000000000000000000000000000000000008152600401610c1a90611a8d565b60405180910390fd5b60008111610c66576040517f08c379a0000000000000000000000000000000000000000000000000000000008152600401610c5d90611b1f565b60405180910390fd5b600073ffffffffffffffffffffffffffffffffffffffff166000803373ffffffffffffffffffffffffffffffffffffffff1673ffffffffffffffffffffffffffffffffffffffff16815260200190815260200160002060020160009054906101000a900473ffffffffffffffffffffffffffffffffffffffff1673ffffffffffffffffffffffffffffffffffffffff1614610d36576040517f08c379a0000000000000000000000000000000000000000000000000000000008152600401610d2d90611b8b565b60405180910390fd5b60405180608001604052808381526020018281526020013373ffffffffffffffffffffffffffffffffffffffff168152602001600115158152506000803373ffffffffffffffffffffffffffffffffffffffff1673ffffffffffffffffffffffffffffffffffffffff1681526020019081526020016000206000820151816000019081610dc39190611d57565b506020820151816001015560408201518160020160006101000a81548173ffffffffffffffffffffffffffffffffffffffff021916908373ffffffffffffffffffffffffffffffffffffffff16021790555060608201518160020160146101000a81548160ff0219169083151502179055509050506002339080600181540180825580915050600190039060005260206000200160009091909190916101000a81548173ffffffffffffffffffffffffffffffffffffffff021916908373ffffffffffffffffffffffffffffffffffffffff1602179055503373ffffffffffffffffffffffffffffffffffffffff167f2ceab1c6930543e076df982ab126f352988b14512c7308b10d6f5a7c0e0735bc8383604051610ee3929190611e29565b60405180910390a25050565b60405180608001604052806060815260200160008152602001600073ffffffffffffffffffffffffffffffffffffffff1681526020016000151581525090565b6000604051905090565b600080fd5b600080fd5b6000819050919050565b610f5681610f43565b8114610f6157600080fd5b50565b600081359050610f7381610f4d565b92915050565b600060208284031215610f8f57610f8e610f39565b5b6000610f9d84828501610f64565b91505092915050565b600073ffffffffffffffffffffffffffffffffffffffff82169050919050565b6000610fd182610fa6565b9050919050565b610fe181610fc6565b82525050565b6000602082019050610ffc6000830184610fd8565b92915050565b61100b81610fc6565b811461101657600080fd5b50565b60008135905061102881611002565b92915050565b60006020828403121561104457611043610f39565b5b600061105284828501611019565b91505092915050565b600081519050919050565b600082825260208201905092915050565b6000819050602082019050919050565b61109081610fc6565b82525050565b61109f81610f43565b82525050565b6080820160008201516110bb6000850182611087565b5060208201516110ce6020850182611096565b5060408201516110e16040850182611096565b5060608201516110f46060850182611096565b50505050565b600061110683836110a5565b60808301905092915050565b6000602082019050919050565b600061112a8261105b565b6111348185611066565b935061113f83611077565b8060005b8381101561117057815161115788826110fa565b975061116283611112565b925050600181019050611143565b5085935050505092915050565b60006020820190508181036000830152611197818461111f565b905092915050565b60008115159050919050565b6111b48161119f565b81146111bf57600080fd5b50565b6000813590506111d1816111ab565b92915050565b600080604083850312156111ee576111ed610f39565b5b60006111fc85828601610f64565b925050602061120d858286016111c2565b9150509250929050565b6000806040838503121561122e5761122d610f39565b5b600061123c85828601611019565b925050602061124d85828601610f64565b9150509250929050565b600081519050919050565b600082825260208201905092915050565b60005b83811015611291578082015181840152602081019050611276565b60008484015250505050565b6000601f19601f8301169050919050565b60006112b982611257565b6112c38185611262565b93506112d3818560208601611273565b6112dc8161129d565b840191505092915050565b6112f081610f43565b82525050565b600061130182610fa6565b9050919050565b611311816112f6565b82525050565b6113208161119f565b82525050565b6000608082019050818103600083015261134081876112ae565b905061134f60208301866112e7565b61135c6040830185611308565b6113696060830184611317565b95945050505050565b60006080820190506113876000830187610fd8565b61139460208301866112e7565b6113a160408301856112e7565b6113ae60608301846112e7565b95945050505050565b600081519050919050565b600082825260208201905092915050565b6000819050602082019050919050565b600082825260208201905092915050565b60006113ff82611257565b61140981856113e3565b9350611419818560208601611273565b6114228161129d565b840191505092915050565b611436816112f6565b82525050565b6114458161119f565b82525050565b6000608083016000830151848203600086015261146882826113f4565b915050602083015161147d6020860182611096565b506040830151611490604086018261142d565b5060608301516114a3606086018261143c565b508091505092915050565b60006114ba838361144b565b905092915050565b6000602082019050919050565b60006114da826113b7565b6114e481856113c2565b9350836020820285016114f6856113d3565b8060005b85811015611532578484038952815161151385826114ae565b945061151e836114c2565b925060208a019950506001810190506114fa565b50829750879550505050505092915050565b6000602082019050818103600083015261155e81846114cf565b905092915050565b600080fd5b600080fd5b7f4e487b7100000000000000000000000000000000000000000000000000000000600052604160045260246000fd5b6115a88261129d565b810181811067ffffffffffffffff821117156115c7576115c6611570565b5b80604052505050565b60006115da610f2f565b90506115e6828261159f565b919050565b600067ffffffffffffffff82111561160657611605611570565b5b61160f8261129d565b9050602081019050919050565b82818337600083830152505050565b600061163e611639846115eb565b6115d0565b90508281526020810184848401111561165a5761165961156b565b5b61166584828561161c565b509392505050565b600082601f83011261168257611681611566565b5b813561169284826020860161162b565b91505092915050565b600080604083850312156116b2576116b1610f39565b5b600083013567ffffffffffffffff8111156116d0576116cf610f3e565b5b6116dc8582860161166d565b92505060206116ed85828601610f64565b9150509250929050565b7f446576656c6f706572206e6f7420726567697374657265640000000000000000600082015250565b600061172d601883611262565b9150611738826116f7565b602082019050919050565b6000602082019050818103600083015261175c81611720565b9050919050565b600060408201905061177860008301856112e7565b6117856020830184611317565b9392505050565b7f446576656c6f706572206e6f7420617661696c61626c65000000000000000000600082015250565b60006117c2601783611262565b91506117cd8261178c565b602082019050919050565b600060208201905081810360008301526117f1816117b5565b9050919050565b7f4d75737420626f6f6b206174206c65617374203120686f757200000000000000600082015250565b600061182e601983611262565b9150611839826117f8565b602082019050919050565b6000602082019050818103600083015261185d81611821565b9050919050565b7f4e487b7100000000000000000000000000000000000000000000000000000000600052601160045260246000fd5b600061189e82610f43565b91506118a983610f43565b92508282026118b781610f43565b915082820484148315176118ce576118cd611864565b5b5092915050565b7f496e73756666696369656e74207061796d656e74000000000000000000000000600082015250565b600061190b601483611262565b9150611916826118d5565b602082019050919050565b6000602082019050818103600083015261193a816118fe565b9050919050565b600060408201905061195660008301856112e7565b61196360208301846112e7565b9392505050565b7f4e487b7100000000000000000000000000000000000000000000000000000000600052602260045260246000fd5b600060028204905060018216806119b157607f821691505b6020821081036119c4576119c361196a565b5b50919050565b7f4e487b7100000000000000000000000000000000000000000000000000000000600052603260045260246000fd5b6000611a0482610f43565b91507fffffffffffffffffffffffffffffffffffffffffffffffffffffffffffffffff8203611a3657611a35611864565b5b600182019050919050565b7f4e616d652063616e6e6f7420626520656d707479000000000000000000000000600082015250565b6000611a77601483611262565b9150611a8282611a41565b602082019050919050565b60006020820190508181036000830152611aa681611a6a565b9050919050565b7f486f75726c792072617465206d7573742062652067726561746572207468616e60008201527f2030000000000000000000000000000000000000000000000000000000000000602082015250565b6000611b09602283611262565b9150611b1482611aad565b604082019050919050565b60006020820190508181036000830152611b3881611afc565b9050919050565b7f446576656c6f70657220616c7265616479207265676973746572656400000000600082015250565b6000611b75601c83611262565b9150611b8082611b3f565b602082019050919050565b60006020820190508181036000830152611ba481611b68565b9050919050565b60008190508160005260206000209050919050565b60006020601f8301049050919050565b600082821b905092915050565b600060088302611c0d7fffffffffffffffffffffffffffffffffffffffffffffffffffffffffffffffff82611bd0565b611c178683611bd0565b95508019841693508086168417925050509392505050565b6000819050919050565b6000611c54611c4f611c4a84610f43565b611c2f565b610f43565b9050919050565b6000819050919050565b611c6e83611c39565b611c82611c7a82611c5b565b848454611bdd565b825550505050565b600090565b611c97611c8a565b611ca2818484611c65565b505050565b5b81811015611cc657611cbb600082611c8f565b600181019050611ca8565b5050565b601f821115611d0b57611cdc81611bab565b611ce584611bc0565b81016020851015611cf4578190505b611d08611d0085611bc0565b830182611ca7565b50505b505050565b600082821c905092915050565b6000611d2e60001984600802611d10565b1980831691505092915050565b6000611d478383611d1d565b9150826002028217905092915050565b611d6082611257565b67ffffffffffffffff811115611d7957611d78611570565b5b611d838254611999565b611d8e828285611cca565b600060209050601f831160018114611dc15760008415611daf578287015190505b611db98582611d3b565b865550611e21565b601f198416611dcf86611bab565b60005b82811015611df757848901518255600182019150602085019450602081019050611dd2565b86831015611e145784890151611e10601f891682611d1d565b8355505b6001600288020188555050505b505050505050565b60006040820190508181036000830152611e4381856112ae565b9050611e5260208301846112e7565b939250505056fea2646970667358221220e24006fa640de996959f6e430c078011d1eae27917ac7ef6b8e15f37ac93c38b64736f6c63430008110033","opcodes":"PUSH1 0x80 PUSH1 0x40 MSTORE CALLVALUE DUP1 ISZERO PUSH2 0x10 JUMPI PUSH1 0x0 DUP1 REVERT JUMPDEST POP PUSH2 0x1E8F DUP1 PUSH2 0x20 PUSH1 0x0 CODECOPY PUSH1 0x0 RETURN INVALID PUSH1 0x80 PUSH1 0x40 MSTORE PUSH1 0x4 CALLDATASIZE LT PUSH2 0x7B JUMPI PUSH1 0x0 CALLDATALOAD PUSH1 0xE0 SHR DUP1 PUSH4 0x61FD5C20 GT PUSH2 0x4E JUMPI DUP1 PUSH4 0x61FD5C20 EQ PUSH2 0x13F JUMPI DUP1 PUSH4 0x9C794E2A EQ PUSH2 0x17F JUMPI DUP1 PUSH4 0xA8C2167B EQ PUSH2 0x1BF JUMPI DUP1 PUSH4 0xE2FB4A03 EQ PUSH2 0x1EA JUMPI PUSH2 0x7B JUMP JUMPDEST DUP1 PUSH4 0x13997FC8 EQ PUSH2 0x80 JUMPI DUP1 PUSH4 0x22EA55F6 EQ PUSH2 0xBD JUMPI DUP1 PUSH4 0x2D3992DC EQ PUSH2 0xFA JUMPI DUP1 PUSH4 0x48DF6ADE EQ PUSH2 0x123 JUMPI JUMPDEST PUSH1 0x0 DUP1 REVERT JUMPDEST CALLVALUE DUP1 ISZERO PUSH2 0x8C JUMPI PUSH1 0x0 DUP1 REVERT JUMPDEST POP PUSH2 0xA7 PUSH1 0x4 DUP1 CALLDATASIZE SUB DUP2 ADD SWAP1 PUSH2 0xA2 SWAP2 SWAP1 PUSH2 0xF79 JUMP JUMPDEST PUSH2 0x213 JUMP JUMPDEST PUSH1 0x40 MLOAD PUSH2 0xB4 SWAP2 SWAP1 PUSH2 0xFE7 JUMP JUMPDEST PUSH1 0x40 MLOAD DUP1 SWAP2 SUB SWAP1 RETURN JUMPDEST CALLVALUE DUP1 ISZERO PUSH2 0xC9 JUMPI PUSH1 0x0 DUP1 REVERT JUMPDEST POP PUSH2 0xE4 PUSH1 0x4 DUP1 CALLDATASIZE SUB DUP2 ADD SWAP1 PUSH2 0xDF SWAP2 SWAP1 PUSH2 0x102E JUMP JUMPDEST PUSH2 0x252 JUMP JUMPDEST PUSH1 0x40 MLOAD PUSH2 0xF1 SWAP2 SWAP1 PUSH2 0x117D JUMP JUMPDEST PUSH1 0x40 MLOAD DUP1 SWAP2 SUB SWAP1 RETURN JUMPDEST CALLVALUE DUP1 ISZERO PUSH2 0x106 JUMPI PUSH1 0x0 DUP1 REVERT JUMPDEST POP PUSH2 0x121 PUSH1 0x4 DUP1 CALLDATASIZE SUB DUP2 ADD SWAP1 PUSH2 0x11C SWAP2 SWAP1 PUSH2 0x11D7 JUMP JUMPDEST PUSH2 0x364 JUMP JUMPDEST STOP JUMPDEST PUSH2 0x13D PUSH1 0x4 DUP1 CALLDATASIZE SUB DUP2 ADD SWAP1 PUSH2 0x138 SWAP2 SWAP1 PUSH2 0x1217 JUMP JUMPDEST PUSH2 0x4B3 JUMP JUMPDEST STOP JUMPDEST CALLVALUE DUP1 ISZERO PUSH2 0x14B JUMPI PUSH1 0x0 DUP1 REVERT JUMPDEST POP PUSH2 0x166 PUSH1 0x4 DUP1 CALLDATASIZE SUB DUP2 ADD SWAP1 PUSH2 0x161 SWAP2 SWAP1 PUSH2 0x102E JUMP JUMPDEST PUSH2 0x851 JUMP JUMPDEST PUSH1 0x40 MLOAD PUSH2 0x176 SWAP5 SWAP4 SWAP3 SWAP2 SWAP1 PUSH2 0x1326 JUMP JUMPDEST PUSH1 0x40 MLOAD DUP1 SWAP2 SUB SWAP1 RETURN JUMPDEST CALLVALUE DUP1 ISZERO PUSH2 0x18B JUMPI PUSH1 0x0 DUP1 REVERT JUMPDEST POP PUSH2 0x1A6 PUSH1 0x4 DUP1 CALLDATASIZE SUB DUP2 ADD SWAP1 PUSH2 0x1A1 SWAP2 SWAP1 PUSH2 0x1217 JUMP JUMPDEST PUSH2 0x936 JUMP JUMPDEST PUSH1 0x40 MLOAD PUSH2 0x1B6 SWAP5 SWAP4 SWAP3 SWAP2 SWAP1 PUSH2 0x1372 JUMP JUMPDEST PUSH1 0x40 MLOAD DUP1 SWAP2 SUB SWAP1 RETURN JUMPDEST CALLVALUE DUP1 ISZERO PUSH2 0x1CB JUMPI PUSH1 0x0 DUP1 REVERT JUMPDEST POP PUSH2 0x1D4 PUSH2 0x9A3 JUMP JUMPDEST PUSH1 0x40 MLOAD PUSH2 0x1E1 SWAP2 SWAP1 PUSH2 0x1544 JUMP JUMPDEST PUSH1 0x40 MLOAD DUP1 SWAP2 SUB SWAP1 RETURN JUMPDEST CALLVALUE DUP1 ISZERO PUSH2 0x1F6 JUMPI PUSH1 0x0 DUP1 REVERT JUMPDEST POP PUSH2 0x211 PUSH1 0x4 DUP1 CALLDATASIZE SUB DUP2 ADD SWAP1 PUSH2 0x20C SWAP2 SWAP1 PUSH2 0x169B JUMP JUMPDEST PUSH2 0xBDF JUMP JUMPDEST STOP JUMPDEST PUSH1 0x2 DUP2 DUP2 SLOAD DUP2 LT PUSH2 0x223 JUMPI PUSH1 0x0 DUP1 REVERT JUMPDEST SWAP1 PUSH1 0x0 MSTORE PUSH1 0x20 PUSH1 0x0 KECCAK256 ADD PUSH1 0x0 SWAP2 POP SLOAD SWAP1 PUSH2 0x100 EXP SWAP1 DIV PUSH20 0xFFFFFFFFFFFFFFFFFFFFFFFFFFFFFFFFFFFFFFFF AND DUP2 JUMP JUMPDEST PUSH1 0x60 PUSH1 0x1 PUSH1 0x0 DUP4 PUSH20 0xFFFFFFFFFFFFFFFFFFFFFFFFFFFFFFFFFFFFFFFF AND PUSH20 0xFFFFFFFFFFFFFFFFFFFFFFFFFFFFFFFFFFFFFFFF AND DUP2 MSTORE PUSH1 0x20 ADD SWAP1 DUP2 MSTORE PUSH1 0x20 ADD PUSH1 0x0 KECCAK256 DUP1 SLOAD DUP1 PUSH1 0x20 MUL PUSH1 0x20 ADD PUSH1 0x40 MLOAD SWAP1 DUP2 ADD PUSH1 0x40 MSTORE DUP1 SWAP3 SWAP2 SWAP1 DUP2 DUP2 MSTORE PUSH1 0x20 ADD PUSH1 0x0 SWAP1 JUMPDEST DUP3 DUP3 LT ISZERO PUSH2 0x359 JUMPI DUP4 DUP3 SWAP1 PUSH1 0x0 MSTORE PUSH1 0x20 PUSH1 0x0 KECCAK256 SWAP1 PUSH1 0x4 MUL ADD PUSH1 0x40 MLOAD DUP1 PUSH1 0x80 ADD PUSH1 0x40 MSTORE SWAP1 DUP2 PUSH1 0x0 DUP3 ADD PUSH1 0x0 SWAP1 SLOAD SWAP1 PUSH2 0x100 EXP SWAP1 DIV PUSH20 0xFFFFFFFFFFFFFFFFFFFFFFFFFFFFFFFFFFFFFFFF AND PUSH20 0xFFFFFFFFFFFFFFFFFFFFFFFFFFFFFFFFFFFFFFFF AND PUSH20 0xFFFFFFFFFFFFFFFFFFFFFFFFFFFFFFFFFFFFFFFF AND DUP2 MSTORE PUSH1 0x20 ADD PUSH1 0x1 DUP3 ADD SLOAD DUP2 MSTORE PUSH1 0x20 ADD PUSH1 0x2 DUP3 ADD SLOAD DUP2 MSTORE PUSH1 0x20 ADD PUSH1 0x3 DUP3 ADD SLOAD DUP2 MSTORE POP POP DUP2 MSTORE PUSH1 0x20 ADD SWAP1 PUSH1 0x1 ADD SWAP1 PUSH2 0x2B3 JUMP JUMPDEST POP POP POP POP SWAP1 POP SWAP2 SWAP1 POP JUMP JUMPDEST PUSH1 0x0 DUP1 PUSH1 0x0 CALLER PUSH20 0xFFFFFFFFFFFFFFFFFFFFFFFFFFFFFFFFFFFFFFFF AND PUSH20 0xFFFFFFFFFFFFFFFFFFFFFFFFFFFFFFFFFFFFFFFF AND DUP2 MSTORE PUSH1 0x20 ADD SWAP1 DUP2 MSTORE PUSH1 0x20 ADD PUSH1 0x0 KECCAK256 SWAP1 POP PUSH1 0x0 PUSH20 0xFFFFFFFFFFFFFFFFFFFFFFFFFFFFFFFFFFFFFFFF AND DUP2 PUSH1 0x2 ADD PUSH1 0x0 SWAP1 SLOAD SWAP1 PUSH2 0x100 EXP SWAP1 DIV PUSH20 0xFFFFFFFFFFFFFFFFFFFFFFFFFFFFFFFFFFFFFFFF AND PUSH20 0xFFFFFFFFFFFFFFFFFFFFFFFFFFFFFFFFFFFFFFFF AND SUB PUSH2 0x439 JUMPI PUSH1 0x40 MLOAD PUSH32 0x8C379A000000000000000000000000000000000000000000000000000000000 DUP2 MSTORE PUSH1 0x4 ADD PUSH2 0x430 SWAP1 PUSH2 0x1743 JUMP JUMPDEST PUSH1 0x40 MLOAD DUP1 SWAP2 SUB SWAP1 REVERT JUMPDEST DUP3 DUP2 PUSH1 0x1 ADD DUP2 SWAP1 SSTORE POP DUP2 DUP2 PUSH1 0x2 ADD PUSH1 0x14 PUSH2 0x100 EXP DUP2 SLOAD DUP2 PUSH1 0xFF MUL NOT AND SWAP1 DUP4 ISZERO ISZERO MUL OR SWAP1 SSTORE POP CALLER PUSH20 0xFFFFFFFFFFFFFFFFFFFFFFFFFFFFFFFFFFFFFFFF AND PUSH32 0xD3E1294FA54188E502681663AE27A8386967FAC0DB2F415FFFB121454CD5BA8D DUP5 DUP5 PUSH1 0x40 MLOAD PUSH2 0x4A6 SWAP3 SWAP2 SWAP1 PUSH2 0x1763 JUMP JUMPDEST PUSH1 0x40 MLOAD DUP1 SWAP2 SUB SWAP1 LOG2 POP POP POP JUMP JUMPDEST PUSH1 0x0 DUP1 PUSH1 0x0 DUP5 PUSH20 0xFFFFFFFFFFFFFFFFFFFFFFFFFFFFFFFFFFFFFFFF AND PUSH20 0xFFFFFFFFFFFFFFFFFFFFFFFFFFFFFFFFFFFFFFFF AND DUP2 MSTORE PUSH1 0x20 ADD SWAP1 DUP2 MSTORE PUSH1 0x20 ADD PUSH1 0x0 KECCAK256 SWAP1 POP PUSH1 0x0 PUSH20 0xFFFFFFFFFFFFFFFFFFFFFFFFFFFFFFFFFFFFFFFF AND DUP2 PUSH1 0x2 ADD PUSH1 0x0 SWAP1 SLOAD SWAP1 PUSH2 0x100 EXP SWAP1 DIV PUSH20 0xFFFFFFFFFFFFFFFFFFFFFFFFFFFFFFFFFFFFFFFF AND PUSH20 0xFFFFFFFFFFFFFFFFFFFFFFFFFFFFFFFFFFFFFFFF AND SUB PUSH2 0x588 JUMPI PUSH1 0x40 MLOAD PUSH32 0x8C379A000000000000000000000000000000000000000000000000000000000 DUP2 MSTORE PUSH1 0x4 ADD PUSH2 0x57F SWAP1 PUSH2 0x1743 JUMP JUMPDEST PUSH1 0x40 MLOAD DUP1 SWAP2 SUB SWAP1 REVERT JUMPDEST DUP1 PUSH1 0x2 ADD PUSH1 0x14 SWAP1 SLOAD SWAP1 PUSH2 0x100 EXP SWAP1 DIV PUSH1 0xFF AND PUSH2 0x5D9 JUMPI PUSH1 0x40 MLOAD PUSH32 0x8C379A000000000000000000000000000000000000000000000000000000000 DUP2 MSTORE PUSH1 0x4 ADD PUSH2 0x5D0 SWAP1 PUSH2 0x17D8 JUMP JUMPDEST PUSH1 0x40 MLOAD DUP1 SWAP2 SUB SWAP1 REVERT JUMPDEST PUSH1 0x0 DUP3 GT PUSH2 0x61C JUMPI PUSH1 0x40 MLOAD PUSH32 0x8C379A000000000000000000000000000000000000000000000000000000000 DUP2 MSTORE PUSH1 0x4 ADD PUSH2 0x613 SWAP1 PUSH2 0x1844 JUMP JUMPDEST PUSH1 0x40 MLOAD DUP1 SWAP2 SUB SWAP1 REVERT JUMPDEST PUSH1 0x0 DUP3 DUP3 PUSH1 0x1 ADD SLOAD PUSH2 0x62E SWAP2 SWAP1 PUSH2 0x1893 JUMP JUMPDEST SWAP1 POP DUP1 CALLVALUE LT ISZERO PUSH2 0x673 JUMPI PUSH1 0x40 MLOAD PUSH32 0x8C379A000000000000000000000000000000000000000000000000000000000 DUP2 MSTORE PUSH1 0x4 ADD PUSH2 0x66A SWAP1 PUSH2 0x1921 JUMP JUMPDEST PUSH1 0x40 MLOAD DUP1 SWAP2 SUB SWAP1 REVERT JUMPDEST DUP2 PUSH1 0x2 ADD PUSH1 0x0 SWAP1 SLOAD SWAP1 PUSH2 0x100 EXP SWAP1 DIV PUSH20 0xFFFFFFFFFFFFFFFFFFFFFFFFFFFFFFFFFFFFFFFF AND PUSH20 0xFFFFFFFFFFFFFFFFFFFFFFFFFFFFFFFFFFFFFFFF AND PUSH2 0x8FC DUP3 SWAP1 DUP2 ISZERO MUL SWAP1 PUSH1 0x40 MLOAD PUSH1 0x0 PUSH1 0x40 MLOAD DUP1 DUP4 SUB DUP2 DUP6 DUP9 DUP9 CALL SWAP4 POP POP POP POP ISZERO DUP1 ISZERO PUSH2 0x6DD JUMPI RETURNDATASIZE PUSH1 0x0 DUP1 RETURNDATACOPY RETURNDATASIZE PUSH1 0x0 REVERT JUMPDEST POP PUSH1 0x1 PUSH1 0x0 DUP6 PUSH20 0xFFFFFFFFFFFFFFFFFFFFFFFFFFFFFFFFFFFFFFFF AND PUSH20 0xFFFFFFFFFFFFFFFFFFFFFFFFFFFFFFFFFFFFFFFF AND DUP2 MSTORE PUSH1 0x20 ADD SWAP1 DUP2 MSTORE PUSH1 0x20 ADD PUSH1 0x0 KECCAK256 PUSH1 0x40 MLOAD DUP1 PUSH1 0x80 ADD PUSH1 0x40 MSTORE DUP1 CALLER PUSH20 0xFFFFFFFFFFFFFFFFFFFFFFFFFFFFFFFFFFFFFFFF AND DUP2 MSTORE PUSH1 0x20 ADD DUP4 DUP2 MSTORE PUSH1 0x20 ADD DUP6 DUP2 MSTORE PUSH1 0x20 ADD TIMESTAMP DUP2 MSTORE POP SWAP1 DUP1 PUSH1 0x1 DUP2 SLOAD ADD DUP1 DUP3 SSTORE DUP1 SWAP2 POP POP PUSH1 0x1 SWAP1 SUB SWAP1 PUSH1 0x0 MSTORE PUSH1 0x20 PUSH1 0x0 KECCAK256 SWAP1 PUSH1 0x4 MUL ADD PUSH1 0x0 SWAP1 SWAP2 SWAP1 SWAP2 SWAP1 SWAP2 POP PUSH1 0x0 DUP3 ADD MLOAD DUP2 PUSH1 0x0 ADD PUSH1 0x0 PUSH2 0x100 EXP DUP2 SLOAD DUP2 PUSH20 0xFFFFFFFFFFFFFFFFFFFFFFFFFFFFFFFFFFFFFFFF MUL NOT AND SWAP1 DUP4 PUSH20 0xFFFFFFFFFFFFFFFFFFFFFFFFFFFFFFFFFFFFFFFF AND MUL OR SWAP1 SSTORE POP PUSH1 0x20 DUP3 ADD MLOAD DUP2 PUSH1 0x1 ADD SSTORE PUSH1 0x40 DUP3 ADD MLOAD DUP2 PUSH1 0x2 ADD SSTORE PUSH1 0x60 DUP3 ADD MLOAD DUP2 PUSH1 0x3 ADD SSTORE POP POP DUP4 PUSH20 0xFFFFFFFFFFFFFFFFFFFFFFFFFFFFFFFFFFFFFFFF AND CALLER PUSH20 0xFFFFFFFFFFFFFFFFFFFFFFFFFFFFFFFFFFFFFFFF AND PUSH32 0xCE064364739E714C1167AB4582B8525ADD338BD63099173042166CD8B9FB6262 DUP4 DUP7 PUSH1 0x40 MLOAD PUSH2 0x843 SWAP3 SWAP2 SWAP1 PUSH2 0x1941 JUMP JUMPDEST PUSH1 0x40 MLOAD DUP1 SWAP2 SUB SWAP1 LOG3 POP POP POP POP JUMP JUMPDEST PUSH1 0x0 PUSH1 0x20 MSTORE DUP1 PUSH1 0x0 MSTORE PUSH1 0x40 PUSH1 0x0 KECCAK256 PUSH1 0x0 SWAP2 POP SWAP1 POP DUP1 PUSH1 0x0 ADD DUP1 SLOAD PUSH2 0x874 SWAP1 PUSH2 0x1999 JUMP JUMPDEST DUP1 PUSH1 0x1F ADD PUSH1 0x20 DUP1 SWAP2 DIV MUL PUSH1 0x20 ADD PUSH1 0x40 MLOAD SWAP1 DUP2 ADD PUSH1 0x40 MSTORE DUP1 SWAP3 SWAP2 SWAP1 DUP2 DUP2 MSTORE PUSH1 0x20 ADD DUP3 DUP1 SLOAD PUSH2 0x8A0 SWAP1 PUSH2 0x1999 JUMP JUMPDEST DUP1 ISZERO PUSH2 0x8ED JUMPI DUP1 PUSH1 0x1F LT PUSH2 0x8C2 JUMPI PUSH2 0x100 DUP1 DUP4 SLOAD DIV MUL DUP4 MSTORE SWAP2 PUSH1 0x20 ADD SWAP2 PUSH2 0x8ED JUMP JUMPDEST DUP3 ADD SWAP2 SWAP1 PUSH1 0x0 MSTORE PUSH1 0x20 PUSH1 0x0 KECCAK256 SWAP1 JUMPDEST DUP2 SLOAD DUP2 MSTORE SWAP1 PUSH1 0x1 ADD SWAP1 PUSH1 0x20 ADD DUP1 DUP4 GT PUSH2 0x8D0 JUMPI DUP3 SWAP1 SUB PUSH1 0x1F AND DUP3 ADD SWAP2 JUMPDEST POP POP POP POP POP SWAP1 DUP1 PUSH1 0x1 ADD SLOAD SWAP1 DUP1 PUSH1 0x2 ADD PUSH1 0x0 SWAP1 SLOAD SWAP1 PUSH2 0x100 EXP SWAP1 DIV PUSH20 0xFFFFFFFFFFFFFFFFFFFFFFFFFFFFFFFFFFFFFFFF AND SWAP1 DUP1 PUSH1 0x2 ADD PUSH1 0x14 SWAP1 SLOAD SWAP1 PUSH2 0x100 EXP SWAP1 DIV PUSH1 0xFF AND SWAP1 POP DUP5 JUMP JUMPDEST PUSH1 0x1 PUSH1 0x20 MSTORE DUP2 PUSH1 0x0 MSTORE PUSH1 0x40 PUSH1 0x0 KECCAK256 DUP2 DUP2 SLOAD DUP2 LT PUSH2 0x952 JUMPI PUSH1 0x0 DUP1 REVERT JUMPDEST SWAP1 PUSH1 0x0 MSTORE PUSH1 0x20 PUSH1 0x0 KECCAK256 SWAP1 PUSH1 0x4 MUL ADD PUSH1 0x0 SWAP2 POP SWAP2 POP POP DUP1 PUSH1 0x0 ADD PUSH1 0x0 SWAP1 SLOAD SWAP1 PUSH2 0x100 EXP SWAP1 DIV PUSH20 0xFFFFFFFFFFFFFFFFFFFFFFFFFFFFFFFFFFFFFFFF AND SWAP1 DUP1 PUSH1 0x1 ADD SLOAD SWAP1 DUP1 PUSH1 0x2 ADD SLOAD SWAP1 DUP1 PUSH1 0x3 ADD SLOAD SWAP1 POP DUP5 JUMP JUMPDEST PUSH1 0x60 PUSH1 0x0 PUSH1 0x2 DUP1 SLOAD SWAP1 POP PUSH8 0xFFFFFFFFFFFFFFFF DUP2 GT ISZERO PUSH2 0x9C6 JUMPI PUSH2 0x9C5 PUSH2 0x1570 JUMP JUMPDEST JUMPDEST PUSH1 0x40 MLOAD SWAP1 DUP1 DUP3 MSTORE DUP1 PUSH1 0x20 MUL PUSH1 0x20 ADD DUP3 ADD PUSH1 0x40 MSTORE DUP1 ISZERO PUSH2 0x9FF JUMPI DUP2 PUSH1 0x20 ADD JUMPDEST PUSH2 0x9EC PUSH2 0xEEF JUMP JUMPDEST DUP2 MSTORE PUSH1 0x20 ADD SWAP1 PUSH1 0x1 SWAP1 SUB SWAP1 DUP2 PUSH2 0x9E4 JUMPI SWAP1 POP JUMPDEST POP SWAP1 POP PUSH1 0x0 JUMPDEST PUSH1 0x2 DUP1 SLOAD SWAP1 POP DUP2 LT ISZERO PUSH2 0xBD7 JUMPI PUSH1 0x0 DUP1 PUSH1 0x2 DUP4 DUP2 SLOAD DUP2 LT PUSH2 0xA29 JUMPI PUSH2 0xA28 PUSH2 0x19CA JUMP JUMPDEST JUMPDEST SWAP1 PUSH1 0x0 MSTORE PUSH1 0x20 PUSH1 0x0 KECCAK256 ADD PUSH1 0x0 SWAP1 SLOAD SWAP1 PUSH2 0x100 EXP SWAP1 DIV PUSH20 0xFFFFFFFFFFFFFFFFFFFFFFFFFFFFFFFFFFFFFFFF AND PUSH20 0xFFFFFFFFFFFFFFFFFFFFFFFFFFFFFFFFFFFFFFFF AND PUSH20 0xFFFFFFFFFFFFFFFFFFFFFFFFFFFFFFFFFFFFFFFF AND DUP2 MSTORE PUSH1 0x20 ADD SWAP1 DUP2 MSTORE PUSH1 0x20 ADD PUSH1 0x0 KECCAK256 PUSH1 0x40 MLOAD DUP1 PUSH1 0x80 ADD PUSH1 0x40 MSTORE SWAP1 DUP2 PUSH1 0x0 DUP3 ADD DUP1 SLOAD PUSH2 0xAA9 SWAP1 PUSH2 0x1999 JUMP JUMPDEST DUP1 PUSH1 0x1F ADD PUSH1 0x20 DUP1 SWAP2 DIV MUL PUSH1 0x20 ADD PUSH1 0x40 MLOAD SWAP1 DUP2 ADD PUSH1 0x40 MSTORE DUP1 SWAP3 SWAP2 SWAP1 DUP2 DUP2 MSTORE PUSH1 0x20 ADD DUP3 DUP1 SLOAD PUSH2 0xAD5 SWAP1 PUSH2 0x1999 JUMP JUMPDEST DUP1 ISZERO PUSH2 0xB22 JUMPI DUP1 PUSH1 0x1F LT PUSH2 0xAF7 JUMPI PUSH2 0x100 DUP1 DUP4 SLOAD DIV MUL DUP4 MSTORE SWAP2 PUSH1 0x20 ADD SWAP2 PUSH2 0xB22 JUMP JUMPDEST DUP3 ADD SWAP2 SWAP1 PUSH1 0x0 MSTORE PUSH1 0x20 PUSH1 0x0 KECCAK256 SWAP1 JUMPDEST DUP2 SLOAD DUP2 MSTORE SWAP1 PUSH1 0x1 ADD SWAP1 PUSH1 0x20 ADD DUP1 DUP4 GT PUSH2 0xB05 JUMPI DUP3 SWAP1 SUB PUSH1 0x1F AND DUP3 ADD SWAP2 JUMPDEST POP POP POP POP POP DUP2 MSTORE PUSH1 0x20 ADD PUSH1 0x1 DUP3 ADD SLOAD DUP2 MSTORE PUSH1 0x20 ADD PUSH1 0x2 DUP3 ADD PUSH1 0x0 SWAP1 SLOAD SWAP1 PUSH2 0x100 EXP SWAP1 DIV PUSH20 0xFFFFFFFFFFFFFFFFFFFFFFFFFFFFFFFFFFFFFFFF AND PUSH20 0xFFFFFFFFFFFFFFFFFFFFFFFFFFFFFFFFFFFFFFFF AND PUSH20 0xFFFFFFFFFFFFFFFFFFFFFFFFFFFFFFFFFFFFFFFF AND DUP2 MSTORE PUSH1 0x20 ADD PUSH1 0x2 DUP3 ADD PUSH1 0x14 SWAP1 SLOAD SWAP1 PUSH2 0x100 EXP SWAP1 DIV PUSH1 0xFF AND ISZERO ISZERO ISZERO ISZERO DUP2 MSTORE POP POP DUP3 DUP3 DUP2 MLOAD DUP2 LT PUSH2 0xBB9 JUMPI PUSH2 0xBB8 PUSH2 0x19CA JUMP JUMPDEST JUMPDEST PUSH1 0x20 MUL PUSH1 0x20 ADD ADD DUP2 SWAP1 MSTORE POP DUP1 DUP1 PUSH2 0xBCF SWAP1 PUSH2 0x19F9 JUMP JUMPDEST SWAP2 POP POP PUSH2 0xA05 JUMP JUMPDEST POP DUP1 SWAP2 POP POP SWAP1 JUMP JUMPDEST PUSH1 0x0 DUP3 MLOAD GT PUSH2 0xC23 JUMPI PUSH1 0x40 MLOAD PUSH32 0x8C379A000000000000000000000000000000000000000000000000000000000 DUP2 MSTORE PUSH1 0x4 ADD PUSH2 0xC1A SWAP1 PUSH2 0x1A8D JUMP JUMPDEST PUSH1 0x40 MLOAD DUP1 SWAP2 SUB SWAP1 REVERT JUMPDEST PUSH1 0x0 DUP2 GT PUSH2 0xC66 JUMPI PUSH1 0x40 MLOAD PUSH32 0x8C379A000000000000000000000000000000000000000000000000000000000 DUP2 MSTORE PUSH1 0x4 ADD PUSH2 0xC5D SWAP1 PUSH2 0x1B1F JUMP JUMPDEST PUSH1 0x40 MLOAD DUP1 SWAP2 SUB SWAP1 REVERT JUMPDEST PUSH1 0x0 PUSH20 0xFFFFFFFFFFFFFFFFFFFFFFFFFFFFFFFFFFFFFFFF AND PUSH1 0x0 DUP1 CALLER PUSH20 0xFFFFFFFFFFFFFFFFFFFFFFFFFFFFFFFFFFFFFFFF AND PUSH20 0xFFFFFFFFFFFFFFFFFFFFFFFFFFFFFFFFFFFFFFFF AND DUP2 MSTORE PUSH1 0x20 ADD SWAP1 DUP2 MSTORE PUSH1 0x20 ADD PUSH1 0x0 KECCAK256 PUSH1 0x2 ADD PUSH1 0x0 SWAP1 SLOAD SWAP1 PUSH2 0x100 EXP SWAP1 DIV PUSH20 0xFFFFFFFFFFFFFFFFFFFFFFFFFFFFFFFFFFFFFFFF AND PUSH20 0xFFFFFFFFFFFFFFFFFFFFFFFFFFFFFFFFFFFFFFFF AND EQ PUSH2 0xD36 JUMPI PUSH1 0x40 MLOAD PUSH32 0x8C379A000000000000000000000000000000000000000000000000000000000 DUP2 MSTORE PUSH1 0x4 ADD PUSH2 0xD2D SWAP1 PUSH2 0x1B8B JUMP JUMPDEST PUSH1 0x40 MLOAD DUP1 SWAP2 SUB SWAP1 REVERT JUMPDEST PUSH1 0x40 MLOAD DUP1 PUSH1 0x80 ADD PUSH1 0x40 MSTORE DUP1 DUP4 DUP2 MSTORE PUSH1 0x20 ADD DUP3 DUP2 MSTORE PUSH1 0x20 ADD CALLER PUSH20 0xFFFFFFFFFFFFFFFFFFFFFFFFFFFFFFFFFFFFFFFF AND DUP2 MSTORE PUSH1 0x20 ADD PUSH1 0x1 ISZERO ISZERO DUP2 MSTORE POP PUSH1 0x0 DUP1 CALLER PUSH20 0xFFFFFFFFFFFFFFFFFFFFFFFFFFFFFFFFFFFFFFFF AND PUSH20 0xFFFFFFFFFFFFFFFFFFFFFFFFFFFFFFFFFFFFFFFF AND DUP2 MSTORE PUSH1 0x20 ADD SWAP1 DUP2 MSTORE PUSH1 0x20 ADD PUSH1 0x0 KECCAK256 PUSH1 0x0 DUP3 ADD MLOAD DUP2 PUSH1 0x0 ADD SWAP1 DUP2 PUSH2 0xDC3 SWAP2 SWAP1 PUSH2 0x1D57 JUMP JUMPDEST POP PUSH1 0x20 DUP3 ADD MLOAD DUP2 PUSH1 0x1 ADD SSTORE PUSH1 0x40 DUP3 ADD MLOAD DUP2 PUSH1 0x2 ADD PUSH1 0x0 PUSH2 0x100 EXP DUP2 SLOAD DUP2 PUSH20 0xFFFFFFFFFFFFFFFFFFFFFFFFFFFFFFFFFFFFFFFF MUL NOT AND SWAP1 DUP4 PUSH20 0xFFFFFFFFFFFFFFFFFFFFFFFFFFFFFFFFFFFFFFFF AND MUL OR SWAP1 SSTORE POP PUSH1 0x60 DUP3 ADD MLOAD DUP2 PUSH1 0x2 ADD PUSH1 0x14 PUSH2 0x100 EXP DUP2 SLOAD DUP2 PUSH1 0xFF MUL NOT AND SWAP1 DUP4 ISZERO ISZERO MUL OR SWAP1 SSTORE POP SWAP1 POP POP PUSH1 0x2 CALLER SWAP1 DUP1 PUSH1 0x1 DUP2 SLOAD ADD DUP1 DUP3 SSTORE DUP1 SWAP2 POP POP PUSH1 0x1 SWAP1 SUB SWAP1 PUSH1 0x0 MSTORE PUSH1 0x20 PUSH1 0x0 KECCAK256 ADD PUSH1 0x0 SWAP1 SWAP2 SWAP1 SWAP2 SWAP1 SWAP2 PUSH2 0x100 EXP DUP2 SLOAD DUP2 PUSH20 0xFFFFFFFFFFFFFFFFFFFFFFFFFFFFFFFFFFFFFFFF MUL NOT AND SWAP1 DUP4 PUSH20 0xFFFFFFFFFFFFFFFFFFFFFFFFFFFFFFFFFFFFFFFF AND MUL OR SWAP1 SSTORE POP CALLER PUSH20 0xFFFFFFFFFFFFFFFFFFFFFFFFFFFFFFFFFFFFFFFF AND PUSH32 0x2CEAB1C6930543E076DF982AB126F352988B14512C7308B10D6F5A7C0E0735BC DUP4 DUP4 PUSH1 0x40 MLOAD PUSH2 0xEE3 SWAP3 SWAP2 SWAP1 PUSH2 0x1E29 JUMP JUMPDEST PUSH1 0x40 MLOAD DUP1 SWAP2 SUB SWAP1 LOG2 POP POP JUMP JUMPDEST PUSH1 0x40 MLOAD DUP1 PUSH1 0x80 ADD PUSH1 0x40 MSTORE DUP1 PUSH1 0x60 DUP2 MSTORE PUSH1 0x20 ADD PUSH1 0x0 DUP2 MSTORE PUSH1 0x20 ADD PUSH1 0x0 PUSH20 0xFFFFFFFFFFFFFFFFFFFFFFFFFFFFFFFFFFFFFFFF AND DUP2 MSTORE PUSH1 0x20 ADD PUSH1 0x0 ISZERO ISZERO DUP2 MSTORE POP SWAP1 JUMP JUMPDEST PUSH1 0x0 PUSH1 0x40 MLOAD SWAP1 POP SWAP1 JUMP JUMPDEST PUSH1 0x0 DUP1 REVERT JUMPDEST PUSH1 0x0 DUP1 REVERT JUMPDEST PUSH1 0x0 DUP2 SWAP1 POP SWAP2 SWAP1 POP JUMP JUMPDEST PUSH2 0xF56 DUP2 PUSH2 0xF43 JUMP JUMPDEST DUP2 EQ PUSH2 0xF61 JUMPI PUSH1 0x0 DUP1 REVERT JUMPDEST POP JUMP JUMPDEST PUSH1 0x0 DUP2 CALLDATALOAD SWAP1 POP PUSH2 0xF73 DUP2 PUSH2 0xF4D JUMP JUMPDEST SWAP3 SWAP2 POP POP JUMP JUMPDEST PUSH1 0x0 PUSH1 0x20 DUP3 DUP5 SUB SLT ISZERO PUSH2 0xF8F JUMPI PUSH2 0xF8E PUSH2 0xF39 JUMP JUMPDEST JUMPDEST PUSH1 0x0 PUSH2 0xF9D DUP5 DUP3 DUP6 ADD PUSH2 0xF64 JUMP JUMPDEST SWAP2 POP POP SWAP3 SWAP2 POP POP JUMP JUMPDEST PUSH1 0x0 PUSH20 0xFFFFFFFFFFFFFFFFFFFFFFFFFFFFFFFFFFFFFFFF DUP3 AND SWAP1 POP SWAP2 SWAP1 POP JUMP JUMPDEST PUSH1 0x0 PUSH2 0xFD1 DUP3 PUSH2 0xFA6 JUMP JUMPDEST SWAP1 POP SWAP2 SWAP1 POP JUMP JUMPDEST PUSH2 0xFE1 DUP2 PUSH2 0xFC6 JUMP JUMPDEST DUP3 MSTORE POP POP JUMP JUMPDEST PUSH1 0x0 PUSH1 0x20 DUP3 ADD SWAP1 POP PUSH2 0xFFC PUSH1 0x0 DUP4 ADD DUP5 PUSH2 0xFD8 JUMP JUMPDEST SWAP3 SWAP2 POP POP JUMP JUMPDEST PUSH2 0x100B DUP2 PUSH2 0xFC6 JUMP JUMPDEST DUP2 EQ PUSH2 0x1016 JUMPI PUSH1 0x0 DUP1 REVERT JUMPDEST POP JUMP JUMPDEST PUSH1 0x0 DUP2 CALLDATALOAD SWAP1 POP PUSH2 0x1028 DUP2 PUSH2 0x1002 JUMP JUMPDEST SWAP3 SWAP2 POP POP JUMP JUMPDEST PUSH1 0x0 PUSH1 0x20 DUP3 DUP5 SUB SLT ISZERO PUSH2 0x1044 JUMPI PUSH2 0x1043 PUSH2 0xF39 JUMP JUMPDEST JUMPDEST PUSH1 0x0 PUSH2 0x1052 DUP5 DUP3 DUP6 ADD PUSH2 0x1019 JUMP JUMPDEST SWAP2 POP POP SWAP3 SWAP2 POP POP JUMP JUMPDEST PUSH1 0x0 DUP2 MLOAD SWAP1 POP SWAP2 SWAP1 POP JUMP JUMPDEST PUSH1 0x0 DUP3 DUP3 MSTORE PUSH1 0x20 DUP3 ADD SWAP1 POP SWAP3 SWAP2 POP POP JUMP JUMPDEST PUSH1 0x0 DUP2 SWAP1 POP PUSH1 0x20 DUP3 ADD SWAP1 POP SWAP2 SWAP1 POP JUMP JUMPDEST PUSH2 0x1090 DUP2 PUSH2 0xFC6 JUMP JUMPDEST DUP3 MSTORE POP POP JUMP JUMPDEST PUSH2 0x109F DUP2 PUSH2 0xF43 JUMP JUMPDEST DUP3 MSTORE POP POP JUMP JUMPDEST PUSH1 0x80 DUP3 ADD PUSH1 0x0 DUP3 ADD MLOAD PUSH2 0x10BB PUSH1 0x0 DUP6 ADD DUP3 PUSH2 0x1087 JUMP JUMPDEST POP PUSH1 0x20 DUP3 ADD MLOAD PUSH2 0x10CE PUSH1 0x20 DUP6 ADD DUP3 PUSH2 0x1096 JUMP JUMPDEST POP PUSH1 0x40 DUP3 ADD MLOAD PUSH2 0x10E1 PUSH1 0x40 DUP6 ADD DUP3 PUSH2 0x1096 JUMP JUMPDEST POP PUSH1 0x60 DUP3 ADD MLOAD PUSH2 0x10F4 PUSH1 0x60 DUP6 ADD DUP3 PUSH2 0x1096 JUMP JUMPDEST POP POP POP POP JUMP JUMPDEST PUSH1 0x0 PUSH2 0x1106 DUP4 DUP4 PUSH2 0x10A5 JUMP JUMPDEST PUSH1 0x80 DUP4 ADD SWAP1 POP SWAP3 SWAP2 POP POP JUMP JUMPDEST PUSH1 0x0 PUSH1 0x20 DUP3 ADD SWAP1 POP SWAP2 SWAP1 POP JUMP JUMPDEST PUSH1 0x0 PUSH2 0x112A DUP3 PUSH2 0x105B JUMP JUMPDEST PUSH2 0x1134 DUP2 DUP6 PUSH2 0x1066 JUMP JUMPDEST SWAP4 POP PUSH2 0x113F DUP4 PUSH2 0x1077 JUMP JUMPDEST DUP1 PUSH1 0x0 JUMPDEST DUP4 DUP2 LT ISZERO PUSH2 0x1170 JUMPI DUP2 MLOAD PUSH2 0x1157 DUP9 DUP3 PUSH2 0x10FA JUMP JUMPDEST SWAP8 POP PUSH2 0x1162 DUP4 PUSH2 0x1112 JUMP JUMPDEST SWAP3 POP POP PUSH1 0x1 DUP2 ADD SWAP1 POP PUSH2 0x1143 JUMP JUMPDEST POP DUP6 SWAP4 POP POP POP POP SWAP3 SWAP2 POP POP JUMP JUMPDEST PUSH1 0x0 PUSH1 0x20 DUP3 ADD SWAP1 POP DUP2 DUP2 SUB PUSH1 0x0 DUP4 ADD MSTORE PUSH2 0x1197 DUP2 DUP5 PUSH2 0x111F JUMP JUMPDEST SWAP1 POP SWAP3 SWAP2 POP POP JUMP JUMPDEST PUSH1 0x0 DUP2 ISZERO ISZERO SWAP1 POP SWAP2 SWAP1 POP JUMP JUMPDEST PUSH2 0x11B4 DUP2 PUSH2 0x119F JUMP JUMPDEST DUP2 EQ PUSH2 0x11BF JUMPI PUSH1 0x0 DUP1 REVERT JUMPDEST POP JUMP JUMPDEST PUSH1 0x0 DUP2 CALLDATALOAD SWAP1 POP PUSH2 0x11D1 DUP2 PUSH2 0x11AB JUMP JUMPDEST SWAP3 SWAP2 POP POP JUMP JUMPDEST PUSH1 0x0 DUP1 PUSH1 0x40 DUP4 DUP6 SUB SLT ISZERO PUSH2 0x11EE JUMPI PUSH2 0x11ED PUSH2 0xF39 JUMP JUMPDEST JUMPDEST PUSH1 0x0 PUSH2 0x11FC DUP6 DUP3 DUP7 ADD PUSH2 0xF64 JUMP JUMPDEST SWAP3 POP POP PUSH1 0x20 PUSH2 0x120D DUP6 DUP3 DUP7 ADD PUSH2 0x11C2 JUMP JUMPDEST SWAP2 POP POP SWAP3 POP SWAP3 SWAP1 POP JUMP JUMPDEST PUSH1 0x0 DUP1 PUSH1 0x40 DUP4 DUP6 SUB SLT ISZERO PUSH2 0x122E JUMPI PUSH2 0x122D PUSH2 0xF39 JUMP JUMPDEST JUMPDEST PUSH1 0x0 PUSH2 0x123C DUP6 DUP3 DUP7 ADD PUSH2 0x1019 JUMP JUMPDEST SWAP3 POP POP PUSH1 0x20 PUSH2 0x124D DUP6 DUP3 DUP7 ADD PUSH2 0xF64 JUMP JUMPDEST SWAP2 POP POP SWAP3 POP SWAP3 SWAP1 POP JUMP JUMPDEST PUSH1 0x0 DUP2 MLOAD SWAP1 POP SWAP2 SWAP1 POP JUMP JUMPDEST PUSH1 0x0 DUP3 DUP3 MSTORE PUSH1 0x20 DUP3 ADD SWAP1 POP SWAP3 SWAP2 POP POP JUMP JUMPDEST PUSH1 0x0 JUMPDEST DUP4 DUP2 LT ISZERO PUSH2 0x1291 JUMPI DUP1 DUP3 ADD MLOAD DUP2 DUP5 ADD MSTORE PUSH1 0x20 DUP2 ADD SWAP1 POP PUSH2 0x1276 JUMP JUMPDEST PUSH1 0x0 DUP5 DUP5 ADD MSTORE POP POP POP POP JUMP JUMPDEST PUSH1 0x0 PUSH1 0x1F NOT PUSH1 0x1F DUP4 ADD AND SWAP1 POP SWAP2 SWAP1 POP JUMP JUMPDEST PUSH1 0x0 PUSH2 0x12B9 DUP3 PUSH2 0x1257 JUMP JUMPDEST PUSH2 0x12C3 DUP2 DUP6 PUSH2 0x1262 JUMP JUMPDEST SWAP4 POP PUSH2 0x12D3 DUP2 DUP6 PUSH1 0x20 DUP7 ADD PUSH2 0x1273 JUMP JUMPDEST PUSH2 0x12DC DUP2 PUSH2 0x129D JUMP JUMPDEST DUP5 ADD SWAP2 POP POP SWAP3 SWAP2 POP POP JUMP JUMPDEST PUSH2 0x12F0 DUP2 PUSH2 0xF43 JUMP JUMPDEST DUP3 MSTORE POP POP JUMP JUMPDEST PUSH1 0x0 PUSH2 0x1301 DUP3 PUSH2 0xFA6 JUMP JUMPDEST SWAP1 POP SWAP2 SWAP1 POP JUMP JUMPDEST PUSH2 0x1311 DUP2 PUSH2 0x12F6 JUMP JUMPDEST DUP3 MSTORE POP POP JUMP JUMPDEST PUSH2 0x1320 DUP2 PUSH2 0x119F JUMP JUMPDEST DUP3 MSTORE POP POP JUMP JUMPDEST PUSH1 0x0 PUSH1 0x80 DUP3 ADD SWAP1 POP DUP2 DUP2 SUB PUSH1 0x0 DUP4 ADD MSTORE PUSH2 0x1340 DUP2 DUP8 PUSH2 0x12AE JUMP JUMPDEST SWAP1 POP PUSH2 0x134F PUSH1 0x20 DUP4 ADD DUP7 PUSH2 0x12E7 JUMP JUMPDEST PUSH2 0x135C PUSH1 0x40 DUP4 ADD DUP6 PUSH2 0x1308 JUMP JUMPDEST PUSH2 0x1369 PUSH1 0x60 DUP4 ADD DUP5 PUSH2 0x1317 JUMP JUMPDEST SWAP6 SWAP5 POP POP POP POP POP JUMP JUMPDEST PUSH1 0x0 PUSH1 0x80 DUP3 ADD SWAP1 POP PUSH2 0x1387 PUSH1 0x0 DUP4 ADD DUP8 PUSH2 0xFD8 JUMP JUMPDEST PUSH2 0x1394 PUSH1 0x20 DUP4 ADD DUP7 PUSH2 0x12E7 JUMP JUMPDEST PUSH2 0x13A1 PUSH1 0x40 DUP4 ADD DUP6 PUSH2 0x12E7 JUMP JUMPDEST PUSH2 0x13AE PUSH1 0x60 DUP4 ADD DUP5 PUSH2 0x12E7 JUMP JUMPDEST SWAP6 SWAP5 POP POP POP POP POP JUMP JUMPDEST PUSH1 0x0 DUP2 MLOAD SWAP1 POP SWAP2 SWAP1 POP JUMP JUMPDEST PUSH1 0x0 DUP3 DUP3 MSTORE PUSH1 0x20 DUP3 ADD SWAP1 POP SWAP3 SWAP2 POP POP JUMP JUMPDEST PUSH1 0x0 DUP2 SWAP1 POP PUSH1 0x20 DUP3 ADD SWAP1 POP SWAP2 SWAP1 POP JUMP JUMPDEST PUSH1 0x0 DUP3 DUP3 MSTORE PUSH1 0x20 DUP3 ADD SWAP1 POP SWAP3 SWAP2 POP POP JUMP JUMPDEST PUSH1 0x0 PUSH2 0x13FF DUP3 PUSH2 0x1257 JUMP JUMPDEST PUSH2 0x1409 DUP2 DUP6 PUSH2 0x13E3 JUMP JUMPDEST SWAP4 POP PUSH2 0x1419 DUP2 DUP6 PUSH1 0x20 DUP7 ADD PUSH2 0x1273 JUMP JUMPDEST PUSH2 0x1422 DUP2 PUSH2 0x129D JUMP JUMPDEST DUP5 ADD SWAP2 POP POP SWAP3 SWAP2 POP POP JUMP JUMPDEST PUSH2 0x1436 DUP2 PUSH2 0x12F6 JUMP JUMPDEST DUP3 MSTORE POP POP JUMP JUMPDEST PUSH2 0x1445 DUP2 PUSH2 0x119F JUMP JUMPDEST DUP3 MSTORE POP POP JUMP JUMPDEST PUSH1 0x0 PUSH1 0x80 DUP4 ADD PUSH1 0x0 DUP4 ADD MLOAD DUP5 DUP3 SUB PUSH1 0x0 DUP7 ADD MSTORE PUSH2 0x1468 DUP3 DUP3 PUSH2 0x13F4 JUMP JUMPDEST SWAP2 POP POP PUSH1 0x20 DUP4 ADD MLOAD PUSH2 0x147D PUSH1 0x20 DUP7 ADD DUP3 PUSH2 0x1096 JUMP JUMPDEST POP PUSH1 0x40 DUP4 ADD MLOAD PUSH2 0x1490 PUSH1 0x40 DUP7 ADD DUP3 PUSH2 0x142D JUMP JUMPDEST POP PUSH1 0x60 DUP4 ADD MLOAD PUSH2 0x14A3 PUSH1 0x60 DUP7 ADD DUP3 PUSH2 0x143C JUMP JUMPDEST POP DUP1 SWAP2 POP POP SWAP3 SWAP2 POP POP JUMP JUMPDEST PUSH1 0x0 PUSH2 0x14BA DUP4 DUP4 PUSH2 0x144B JUMP JUMPDEST SWAP1 POP SWAP3 SWAP2 POP POP JUMP JUMPDEST PUSH1 0x0 PUSH1 0x20 DUP3 ADD SWAP1 POP SWAP2 SWAP1 POP JUMP JUMPDEST PUSH1 0x0 PUSH2 0x14DA DUP3 PUSH2 0x13B7 JUMP JUMPDEST PUSH2 0x14E4 DUP2 DUP6 PUSH2 0x13C2 JUMP JUMPDEST SWAP4 POP DUP4 PUSH1 0x20 DUP3 MUL DUP6 ADD PUSH2 0x14F6 DUP6 PUSH2 0x13D3 JUMP JUMPDEST DUP1 PUSH1 0x0 JUMPDEST DUP6 DUP2 LT ISZERO PUSH2 0x1532 JUMPI DUP5 DUP5 SUB DUP10 MSTORE DUP2 MLOAD PUSH2 0x1513 DUP6 DUP3 PUSH2 0x14AE JUMP JUMPDEST SWAP5 POP PUSH2 0x151E DUP4 PUSH2 0x14C2 JUMP JUMPDEST SWAP3 POP PUSH1 0x20 DUP11 ADD SWAP10 POP POP PUSH1 0x1 DUP2 ADD SWAP1 POP PUSH2 0x14FA JUMP JUMPDEST POP DUP3 SWAP8 POP DUP8 SWAP6 POP POP POP POP POP POP SWAP3 SWAP2 POP POP JUMP JUMPDEST PUSH1 0x0 PUSH1 0x20 DUP3 ADD SWAP1 POP DUP2 DUP2 SUB PUSH1 0x0 DUP4 ADD MSTORE PUSH2 0x155E DUP2 DUP5 PUSH2 0x14CF JUMP JUMPDEST SWAP1 POP SWAP3 SWAP2 POP POP JUMP JUMPDEST PUSH1 0x0 DUP1 REVERT JUMPDEST PUSH1 0x0 DUP1 REVERT JUMPDEST PUSH32 0x4E487B7100000000000000000000000000000000000000000000000000000000 PUSH1 0x0 MSTORE PUSH1 0x41 PUSH1 0x4 MSTORE PUSH1 0x24 PUSH1 0x0 REVERT JUMPDEST PUSH2 0x15A8 DUP3 PUSH2 0x129D JUMP JUMPDEST DUP2 ADD DUP2 DUP2 LT PUSH8 0xFFFFFFFFFFFFFFFF DUP3 GT OR ISZERO PUSH2 0x15C7 JUMPI PUSH2 0x15C6 PUSH2 0x1570 JUMP JUMPDEST JUMPDEST DUP1 PUSH1 0x40 MSTORE POP POP POP JUMP JUMPDEST PUSH1 0x0 PUSH2 0x15DA PUSH2 0xF2F JUMP JUMPDEST SWAP1 POP PUSH2 0x15E6 DUP3 DUP3 PUSH2 0x159F JUMP JUMPDEST SWAP2 SWAP1 POP JUMP JUMPDEST PUSH1 0x0 PUSH8 0xFFFFFFFFFFFFFFFF DUP3 GT ISZERO PUSH2 0x1606 JUMPI PUSH2 0x1605 PUSH2 0x1570 JUMP JUMPDEST JUMPDEST PUSH2 0x160F DUP3 PUSH2 0x129D JUMP JUMPDEST SWAP1 POP PUSH1 0x20 DUP2 ADD SWAP1 POP SWAP2 SWAP1 POP JUMP JUMPDEST DUP3 DUP2 DUP4 CALLDATACOPY PUSH1 0x0 DUP4 DUP4 ADD MSTORE POP POP POP JUMP JUMPDEST PUSH1 0x0 PUSH2 0x163E PUSH2 0x1639 DUP5 PUSH2 0x15EB JUMP JUMPDEST PUSH2 0x15D0 JUMP JUMPDEST SWAP1 POP DUP3 DUP2 MSTORE PUSH1 0x20 DUP2 ADD DUP5 DUP5 DUP5 ADD GT ISZERO PUSH2 0x165A JUMPI PUSH2 0x1659 PUSH2 0x156B JUMP JUMPDEST JUMPDEST PUSH2 0x1665 DUP5 DUP3 DUP6 PUSH2 0x161C JUMP JUMPDEST POP SWAP4 SWAP3 POP POP POP JUMP JUMPDEST PUSH1 0x0 DUP3 PUSH1 0x1F DUP4 ADD SLT PUSH2 0x1682 JUMPI PUSH2 0x1681 PUSH2 0x1566 JUMP JUMPDEST JUMPDEST DUP2 CALLDATALOAD PUSH2 0x1692 DUP5 DUP3 PUSH1 0x20 DUP7 ADD PUSH2 0x162B JUMP JUMPDEST SWAP2 POP POP SWAP3 SWAP2 POP POP JUMP JUMPDEST PUSH1 0x0 DUP1 PUSH1 0x40 DUP4 DUP6 SUB SLT ISZERO PUSH2 0x16B2 JUMPI PUSH2 0x16B1 PUSH2 0xF39 JUMP JUMPDEST JUMPDEST PUSH1 0x0 DUP4 ADD CALLDATALOAD PUSH8 0xFFFFFFFFFFFFFFFF DUP2 GT ISZERO PUSH2 0x16D0 JUMPI PUSH2 0x16CF PUSH2 0xF3E JUMP JUMPDEST JUMPDEST PUSH2 0x16DC DUP6 DUP3 DUP7 ADD PUSH2 0x166D JUMP JUMPDEST SWAP3 POP POP PUSH1 0x20 PUSH2 0x16ED DUP6 DUP3 DUP7 ADD PUSH2 0xF64 JUMP JUMPDEST SWAP2 POP POP SWAP3 POP SWAP3 SWAP1 POP JUMP JUMPDEST PUSH32 0x446576656C6F706572206E6F7420726567697374657265640000000000000000 PUSH1 0x0 DUP3 ADD MSTORE POP JUMP JUMPDEST PUSH1 0x0 PUSH2 0x172D PUSH1 0x18 DUP4 PUSH2 0x1262 JUMP JUMPDEST SWAP2 POP PUSH2 0x1738 DUP3 PUSH2 0x16F7 JUMP JUMPDEST PUSH1 0x20 DUP3 ADD SWAP1 POP SWAP2 SWAP1 POP JUMP JUMPDEST PUSH1 0x0 PUSH1 0x20 DUP3 ADD SWAP1 POP DUP2 DUP2 SUB PUSH1 0x0 DUP4 ADD MSTORE PUSH2 0x175C DUP2 PUSH2 0x1720 JUMP JUMPDEST SWAP1 POP SWAP2 SWAP1 POP JUMP JUMPDEST PUSH1 0x0 PUSH1 0x40 DUP3 ADD SWAP1 POP PUSH2 0x1778 PUSH1 0x0 DUP4 ADD DUP6 PUSH2 0x12E7 JUMP JUMPDEST PUSH2 0x1785 PUSH1 0x20 DUP4 ADD DUP5 PUSH2 0x1317 JUMP JUMPDEST SWAP4 SWAP3 POP POP POP JUMP JUMPDEST PUSH32 0x446576656C6F706572206E6F7420617661696C61626C65000000000000000000 PUSH1 0x0 DUP3 ADD MSTORE POP JUMP JUMPDEST PUSH1 0x0 PUSH2 0x17C2 PUSH1 0x17 DUP4 PUSH2 0x1262 JUMP JUMPDEST SWAP2 POP PUSH2 0x17CD DUP3 PUSH2 0x178C JUMP JUMPDEST PUSH1 0x20 DUP3 ADD SWAP1 POP SWAP2 SWAP1 POP JUMP JUMPDEST PUSH1 0x0 PUSH1 0x20 DUP3 ADD SWAP1 POP DUP2 DUP2 SUB PUSH1 0x0 DUP4 ADD MSTORE PUSH2 0x17F1 DUP2 PUSH2 0x17B5 JUMP JUMPDEST SWAP1 POP SWAP2 SWAP1 POP JUMP JUMPDEST PUSH32 0x4D75737420626F6F6B206174206C65617374203120686F757200000000000000 PUSH1 0x0 DUP3 ADD MSTORE POP JUMP JUMPDEST PUSH1 0x0 PUSH2 0x182E PUSH1 0x19 DUP4 PUSH2 0x1262 JUMP JUMPDEST SWAP2 POP PUSH2 0x1839 DUP3 PUSH2 0x17F8 JUMP JUMPDEST PUSH1 0x20 DUP3 ADD SWAP1 POP SWAP2 SWAP1 POP JUMP JUMPDEST PUSH1 0x0 PUSH1 0x20 DUP3 ADD SWAP1 POP DUP2 DUP2 SUB PUSH1 0x0 DUP4 ADD MSTORE PUSH2 0x185D DUP2 PUSH2 0x1821 JUMP JUMPDEST SWAP1 POP SWAP2 SWAP1 POP JUMP JUMPDEST PUSH32 0x4E487B7100000000000000000000000000000000000000000000000000000000 PUSH1 0x0 MSTORE PUSH1 0x11 PUSH1 0x4 MSTORE PUSH1 0x24 PUSH1 0x0 REVERT JUMPDEST PUSH1 0x0 PUSH2 0x189E DUP3 PUSH2 0xF43 JUMP JUMPDEST SWAP2 POP PUSH2 0x18A9 DUP4 PUSH2 0xF43 JUMP JUMPDEST SWAP3 POP DUP3 DUP3 MUL PUSH2 0x18B7 DUP2 PUSH2 0xF43 JUMP JUMPDEST SWAP2 POP DUP3 DUP3 DIV DUP5 EQ DUP4 ISZERO OR PUSH2 0x18CE JUMPI PUSH2 0x18CD PUSH2 0x1864 JUMP JUMPDEST JUMPDEST POP SWAP3 SWAP2 POP POP JUMP JUMPDEST PUSH32 0x496E73756666696369656E74207061796D656E74000000000000000000000000 PUSH1 0x0 DUP3 ADD MSTORE POP JUMP JUMPDEST PUSH1 0x0 PUSH2 0x190B PUSH1 0x14 DUP4 PUSH2 0x1262 JUMP JUMPDEST SWAP2 POP PUSH2 0x1916 DUP3 PUSH2 0x18D5 JUMP JUMPDEST PUSH1 0x20 DUP3 ADD SWAP1 POP SWAP2 SWAP1 POP JUMP JUMPDEST PUSH1 0x0 PUSH1 0x20 DUP3 ADD SWAP1 POP DUP2 DUP2 SUB PUSH1 0x0 DUP4 ADD MSTORE PUSH2 0x193A DUP2 PUSH2 0x18FE JUMP JUMPDEST SWAP1 POP SWAP2 SWAP1 POP JUMP JUMPDEST PUSH1 0x0 PUSH1 0x40 DUP3 ADD SWAP1 POP PUSH2 0x1956 PUSH1 0x0 DUP4 ADD DUP6 PUSH2 0x12E7 JUMP JUMPDEST PUSH2 0x1963 PUSH1 0x20 DUP4 ADD DUP5 PUSH2 0x12E7 JUMP JUMPDEST SWAP4 SWAP3 POP POP POP JUMP JUMPDEST PUSH32 0x4E487B7100000000000000000000000000000000000000000000000000000000 PUSH1 0x0 MSTORE PUSH1 0x22 PUSH1 0x4 MSTORE PUSH1 0x24 PUSH1 0x0 REVERT JUMPDEST PUSH1 0x0 PUSH1 0x2 DUP3 DIV SWAP1 POP PUSH1 0x1 DUP3 AND DUP1 PUSH2 0x19B1 JUMPI PUSH1 0x7F DUP3 AND SWAP2 POP JUMPDEST PUSH1 0x20 DUP3 LT DUP2 SUB PUSH2 0x19C4 JUMPI PUSH2 0x19C3 PUSH2 0x196A JUMP JUMPDEST JUMPDEST POP SWAP2 SWAP1 POP JUMP JUMPDEST PUSH32 0x4E487B7100000000000000000000000000000000000000000000000000000000 PUSH1 0x0 MSTORE PUSH1 0x32 PUSH1 0x4 MSTORE PUSH1 0x24 PUSH1 0x0 REVERT JUMPDEST PUSH1 0x0 PUSH2 0x1A04 DUP3 PUSH2 0xF43 JUMP JUMPDEST SWAP2 POP PUSH32 0xFFFFFFFFFFFFFFFFFFFFFFFFFFFFFFFFFFFFFFFFFFFFFFFFFFFFFFFFFFFFFFFF DUP3 SUB PUSH2 0x1A36 JUMPI PUSH2 0x1A35 PUSH2 0x1864 JUMP JUMPDEST JUMPDEST PUSH1 0x1 DUP3 ADD SWAP1 POP SWAP2 SWAP1 POP JUMP JUMPDEST PUSH32 0x4E616D652063616E6E6F7420626520656D707479000000000000000000000000 PUSH1 0x0 DUP3 ADD MSTORE POP JUMP JUMPDEST PUSH1 0x0 PUSH2 0x1A77 PUSH1 0x14 DUP4 PUSH2 0x1262 JUMP JUMPDEST SWAP2 POP PUSH2 0x1A82 DUP3 PUSH2 0x1A41 JUMP JUMPDEST PUSH1 0x20 DUP3 ADD SWAP1 POP SWAP2 SWAP1 POP JUMP JUMPDEST PUSH1 0x0 PUSH1 0x20 DUP3 ADD SWAP1 POP DUP2 DUP2 SUB PUSH1 0x0 DUP4 ADD MSTORE PUSH2 0x1AA6 DUP2 PUSH2 0x1A6A JUMP JUMPDEST SWAP1 POP SWAP2 SWAP1 POP JUMP JUMPDEST PUSH32 0x486F75726C792072617465206D7573742062652067726561746572207468616E PUSH1 0x0 DUP3 ADD MSTORE PUSH32 0x2030000000000000000000000000000000000000000000000000000000000000 PUSH1 0x20 DUP3 ADD MSTORE POP JUMP JUMPDEST PUSH1 0x0 PUSH2 0x1B09 PUSH1 0x22 DUP4 PUSH2 0x1262 JUMP JUMPDEST SWAP2 POP PUSH2 0x1B14 DUP3 PUSH2 0x1AAD JUMP JUMPDEST PUSH1 0x40 DUP3 ADD SWAP1 POP SWAP2 SWAP1 POP JUMP JUMPDEST PUSH1 0x0 PUSH1 0x20 DUP3 ADD SWAP1 POP DUP2 DUP2 SUB PUSH1 0x0 DUP4 ADD MSTORE PUSH2 0x1B38 DUP2 PUSH2 0x1AFC JUMP JUMPDEST SWAP1 POP SWAP2 SWAP1 POP JUMP JUMPDEST PUSH32 0x446576656C6F70657220616C7265616479207265676973746572656400000000 PUSH1 0x0 DUP3 ADD MSTORE POP JUMP JUMPDEST PUSH1 0x0 PUSH2 0x1B75 PUSH1 0x1C DUP4 PUSH2 0x1262 JUMP JUMPDEST SWAP2 POP PUSH2 0x1B80 DUP3 PUSH2 0x1B3F JUMP JUMPDEST PUSH1 0x20 DUP3 ADD SWAP1 POP SWAP2 SWAP1 POP JUMP JUMPDEST PUSH1 0x0 PUSH1 0x20 DUP3 ADD SWAP1 POP DUP2 DUP2 SUB PUSH1 0x0 DUP4 ADD MSTORE PUSH2 0x1BA4 DUP2 PUSH2 0x1B68 JUMP JUMPDEST SWAP1 POP SWAP2 SWAP1 POP JUMP JUMPDEST PUSH1 0x0 DUP2 SWAP1 POP DUP2 PUSH1 0x0 MSTORE PUSH1 0x20 PUSH1 0x0 KECCAK256 SWAP1 POP SWAP2 SWAP1 POP JUMP JUMPDEST PUSH1 0x0 PUSH1 0x20 PUSH1 0x1F DUP4 ADD DIV SWAP1 POP SWAP2 SWAP1 POP JUMP JUMPDEST PUSH1 0x0 DUP3 DUP3 SHL SWAP1 POP SWAP3 SWAP2 POP POP JUMP JUMPDEST PUSH1 0x0 PUSH1 0x8 DUP4 MUL PUSH2 0x1C0D PUSH32 0xFFFFFFFFFFFFFFFFFFFFFFFFFFFFFFFFFFFFFFFFFFFFFFFFFFFFFFFFFFFFFFFF DUP3 PUSH2 0x1BD0 JUMP JUMPDEST PUSH2 0x1C17 DUP7 DUP4 PUSH2 0x1BD0 JUMP JUMPDEST SWAP6 POP DUP1 NOT DUP5 AND SWAP4 POP DUP1 DUP7 AND DUP5 OR SWAP3 POP POP POP SWAP4 SWAP3 POP POP POP JUMP JUMPDEST PUSH1 0x0 DUP2 SWAP1 POP SWAP2 SWAP1 POP JUMP JUMPDEST PUSH1 0x0 PUSH2 0x1C54 PUSH2 0x1C4F PUSH2 0x1C4A DUP5 PUSH2 0xF43 JUMP JUMPDEST PUSH2 0x1C2F JUMP JUMPDEST PUSH2 0xF43 JUMP JUMPDEST SWAP1 POP SWAP2 SWAP1 POP JUMP JUMPDEST PUSH1 0x0 DUP2 SWAP1 POP SWAP2 SWAP1 POP JUMP JUMPDEST PUSH2 0x1C6E DUP4 PUSH2 0x1C39 JUMP JUMPDEST PUSH2 0x1C82 PUSH2 0x1C7A DUP3 PUSH2 0x1C5B JUMP JUMPDEST DUP5 DUP5 SLOAD PUSH2 0x1BDD JUMP JUMPDEST DUP3 SSTORE POP POP POP POP JUMP JUMPDEST PUSH1 0x0 SWAP1 JUMP JUMPDEST PUSH2 0x1C97 PUSH2 0x1C8A JUMP JUMPDEST PUSH2 0x1CA2 DUP2 DUP5 DUP5 PUSH2 0x1C65 JUMP JUMPDEST POP POP POP JUMP JUMPDEST JUMPDEST DUP2 DUP2 LT ISZERO PUSH2 0x1CC6 JUMPI PUSH2 0x1CBB PUSH1 0x0 DUP3 PUSH2 0x1C8F JUMP JUMPDEST PUSH1 0x1 DUP2 ADD SWAP1 POP PUSH2 0x1CA8 JUMP JUMPDEST POP POP JUMP JUMPDEST PUSH1 0x1F DUP3 GT ISZERO PUSH2 0x1D0B JUMPI PUSH2 0x1CDC DUP2 PUSH2 0x1BAB JUMP JUMPDEST PUSH2 0x1CE5 DUP5 PUSH2 0x1BC0 JUMP JUMPDEST DUP2 ADD PUSH1 0x20 DUP6 LT ISZERO PUSH2 0x1CF4 JUMPI DUP2 SWAP1 POP JUMPDEST PUSH2 0x1D08 PUSH2 0x1D00 DUP6 PUSH2 0x1BC0 JUMP JUMPDEST DUP4 ADD DUP3 PUSH2 0x1CA7 JUMP JUMPDEST POP POP JUMPDEST POP POP POP JUMP JUMPDEST PUSH1 0x0 DUP3 DUP3 SHR SWAP1 POP SWAP3 SWAP2 POP POP JUMP JUMPDEST PUSH1 0x0 PUSH2 0x1D2E PUSH1 0x0 NOT DUP5 PUSH1 0x8 MUL PUSH2 0x1D10 JUMP JUMPDEST NOT DUP1 DUP4 AND SWAP2 POP POP SWAP3 SWAP2 POP POP JUMP JUMPDEST PUSH1 0x0 PUSH2 0x1D47 DUP4 DUP4 PUSH2 0x1D1D JUMP JUMPDEST SWAP2 POP DUP3 PUSH1 0x2 MUL DUP3 OR SWAP1 POP SWAP3 SWAP2 POP POP JUMP JUMPDEST PUSH2 0x1D60 DUP3 PUSH2 0x1257 JUMP JUMPDEST PUSH8 0xFFFFFFFFFFFFFFFF DUP2 GT ISZERO PUSH2 0x1D79 JUMPI PUSH2 0x1D78 PUSH2 0x1570 JUMP JUMPDEST JUMPDEST PUSH2 0x1D83 DUP3 SLOAD PUSH2 0x1999 JUMP JUMPDEST PUSH2 0x1D8E DUP3 DUP3 DUP6 PUSH2 0x1CCA JUMP JUMPDEST PUSH1 0x0 PUSH1 0x20 SWAP1 POP PUSH1 0x1F DUP4 GT PUSH1 0x1 DUP2 EQ PUSH2 0x1DC1 JUMPI PUSH1 0x0 DUP5 ISZERO PUSH2 0x1DAF JUMPI DUP3 DUP8 ADD MLOAD SWAP1 POP JUMPDEST PUSH2 0x1DB9 DUP6 DUP3 PUSH2 0x1D3B JUMP JUMPDEST DUP7 SSTORE POP PUSH2 0x1E21 JUMP JUMPDEST PUSH1 0x1F NOT DUP5 AND PUSH2 0x1DCF DUP7 PUSH2 0x1BAB JUMP JUMPDEST PUSH1 0x0 JUMPDEST DUP3 DUP2 LT ISZERO PUSH2 0x1DF7 JUMPI DUP5 DUP10 ADD MLOAD DUP3 SSTORE PUSH1 0x1 DUP3 ADD SWAP2 POP PUSH1 0x20 DUP6 ADD SWAP5 POP PUSH1 0x20 DUP2 ADD SWAP1 POP PUSH2 0x1DD2 JUMP JUMPDEST DUP7 DUP4 LT ISZERO PUSH2 0x1E14 JUMPI DUP5 DUP10 ADD MLOAD PUSH2 0x1E10 PUSH1 0x1F DUP10 AND DUP3 PUSH2 0x1D1D JUMP JUMPDEST DUP4 SSTORE POP JUMPDEST PUSH1 0x1 PUSH1 0x2 DUP9 MUL ADD DUP9 SSTORE POP POP POP JUMPDEST POP POP POP POP POP POP JUMP JUMPDEST PUSH1 0x0 PUSH1 0x40 DUP3 ADD SWAP1 POP DUP2 DUP2 SUB PUSH1 0x0 DUP4 ADD MSTORE PUSH2 0x1E43 DUP2 DUP6 PUSH2 0x12AE JUMP JUMPDEST SWAP1 POP PUSH2 0x1E52 PUSH1 0x20 DUP4 ADD DUP5 PUSH2 0x12E7 JUMP JUMPDEST SWAP4 SWAP3 POP POP POP JUMP INVALID LOG2 PUSH5 0x6970667358 0x22 SLT KECCAK256 0xE2 BLOCKHASH MOD STATICCALL PUSH5 0xDE996959F PUSH15 0x430C078011D1EAE27917AC7EF6B8E1 0x5F CALLDATACOPY 0xAC SWAP4 0xC3 DUP12 PUSH5 0x736F6C6343 STOP ADDMOD GT STOP CALLER "},"methodIdentifiers":{"bookDeveloper(address,uint256)":"48df6ade","bookings(address,uint256)":"9c794e2a","developerAddresses(uint256)":"13997fc8","developers(address)":"61fd5c20","getAllDevelopers()":"a8c2167b","getBookings(address)":"22ea55f6","registerDeveloper(string,uint256)":"e2fb4a03","updateDeveloper(uint256,bool)":"2d3992dc"}}}}}